:1000000001308A000C290000FF00030E8301A100CB
:100010000A08A0008A010408A2007708A300780853
:10002000A4007908A5007A08A600831383128B1D0B
:100030001B280B1830280B1E1F288B18332822086A
:1000400084002308F7002408F8002508F900260892
:10005000FA0020088A00210E8300FF0E7F0E09009F
:100060008A110A125A288A110A123628831606148F
:100070008312061854282811280883168700831233
:100080000715A811280883168700831287152812E0
:1000900028088316870083120716A81228088316DB
:1000A00087008312871636280130A7008B108A112B
:1000B0000A121F28831606168312061ABF28A817CD
:1000C0002808831687008312871B792828102808A0
:1000D0008316870083120714A81128088316870047
:1000E00083128711281128088316870083120711AD
:1000F0008B28281028088316870083120710A81160
:100100002808831687008312871128112808831670
:100110008700831207118316861483128618A3287A
:10012000A81028088316870083128714281228082D
:100130008316870083120712A812280883168700E7
:1001400083128712B528A810280883168700831207
:100150008710281228088316870083120712A81216
:100160002808831687008312871228172808831609
:1001700087008312071BBD285F280130A700831664
:1001800086168312861AF2282817280883168700F5
:100190008312071BF0282811280883168700831272
:1001A0000715281228088316870083120716A8123D
:1001B00028088316870083128716A811280883163B
:1001C000870083128711281028088316870083125E
:1001D0000710A81028088316870083128710C428E8
:1001E0000130A7000B108A110A121F282A30840040
:1001F00083130008031909290630F800F701F70BEB
:10020000FF28F80BFE287B30F700F70B0529800B41
:10021000FC288A110A127B2903081F398300A701D1
:10022000FF30A80083161F149F141F159F1107305D
:100230009C008313F330860083128601C03083163E
:100240008700831287010B168316011383128B1507
:100250008B04A708031D502928112808831687003E
:1002600083120711281228088316870083120712A9
:10027000281028088316870083120710A810280862
:100280008316870083128710A81128088316870019
:1002900083128711A81228088316870083128712F9
:1002A000270B7E292811280883168700831207153B
:1002B000281228088316870083120716281028089A
:1002C0008316870083120710A8102808831687005A
:1002D00083128710A81128088316870083128711BC
:1002E000A812280883168700831287121430A900E9
:1002F000FA30AA00F628A90B7829A70183168614DC
:100300008312861CA829A812280883168700831246
:1003100087162811280883168700831207152812CC
:1003200028088316870083120716281028088316CA
:10033000870083120710A8102808831687008312ED
:100340008710A811280883168700831287117E2939
:0403500029296300F4
:02400E00713F00
:00000001FF
;PIC16F877A
;CRC=676D  CREATED="10-Abr.-20 16:02"
